{
  "_format": "hh-sol-artifact-1",
  "contractName": "CampaignFactory",
  "sourceName": "contracts/Campaign.sol",
  "abi": [
    {
      "constant": true,
      "inputs": [
        {
          "name": "",
          "type": "uint256"
        }
      ],
      "name": "deployedCampaigns",
      "outputs": [
        {
          "name": "",
          "type": "address"
        }
      ],
      "payable": false,
      "stateMutability": "view",
      "type": "function"
    },
    {
      "constant": true,
      "inputs": [],
      "name": "getDeployedCampaign",
      "outputs": [
        {
          "name": "",
          "type": "address[]"
        }
      ],
      "payable": false,
      "stateMutability": "view",
      "type": "function"
    },
    {
      "constant": false,
      "inputs": [
        {
          "name": "_name",
          "type": "string"
        },
        {
          "name": "_description",
          "type": "string"
        },
        {
          "name": "_minimum",
          "type": "uint256"
        }
      ],
      "name": "createCampaign",
      "outputs": [],
      "payable": false,
      "stateMutability": "nonpayable",
      "type": "function"
    },
    {
      "anonymous": false,
      "inputs": [
        {
          "indexed": true,
          "name": "_owner",
          "type": "address"
        },
        {
          "indexed": true,
          "name": "_name",
          "type": "string"
        },
        {
          "indexed": false,
          "name": "_description",
          "type": "string"
        },
        {
          "indexed": false,
          "name": "_minimum",
          "type": "uint256"
        }
      ],
      "name": "NewCampaign",
      "type": "event"
    }
  ],
  "bytecode": "0x608060405234801561001057600080fd5b50611ab7806100206000396000f300608060405260043610610057576000357c0100000000000000000000000000000000000000000000000000000000900463ffffffff168063339d50a51461005c5780635eac0007146100c9578063ffa56a5714610135575b600080fd5b34801561006857600080fd5b50610087600480360381019080803590602001909291905050506101ee565b604051808273ffffffffffffffffffffffffffffffffffffffff1673ffffffffffffffffffffffffffffffffffffffff16815260200191505060405180910390f35b3480156100d557600080fd5b506100de61022c565b6040518080602001828103825283818151815260200191508051906020019060200280838360005b83811015610121578082015181840152602081019050610106565b505050509050019250505060405180910390f35b34801561014157600080fd5b506101ec600480360381019080803590602001908201803590602001908080601f0160208091040260200160405190810160405280939291908181526020018383808284378201915050505050509192919290803590602001908201803590602001908080601f0160208091040260200160405190810160405280939291908181526020018383808284378201915050505050509192919290803590602001909291905050506102ba565b005b6000818154811015156101fd57fe5b906000526020600020016000915054906101000a900473ffffffffffffffffffffffffffffffffffffffff1681565b606060008054806020026020016040519081016040528092919081815260200182805480156102b057602002820191906000526020600020905b8160009054906101000a900473ffffffffffffffffffffffffffffffffffffffff1673ffffffffffffffffffffffffffffffffffffffff1681526020019060010190808311610266575b5050505050905090565b6000838383336102c8610586565b8080602001806020018581526020018473ffffffffffffffffffffffffffffffffffffffff1673ffffffffffffffffffffffffffffffffffffffff168152602001838103835287818151815260200191508051906020019080838360005b83811015610341578082015181840152602081019050610326565b50505050905090810190601f16801561036e5780820380516001836020036101000a031916815260200191505b50838103825286818151815260200191508051906020019080838360005b838110156103a757808201518184015260208101905061038c565b50505050905090810190601f1680156103d45780820380516001836020036101000a031916815260200191505b509650505050505050604051809103906000f0801580156103f9573d6000803e3d6000fd5b50905060008190806001815401808255809150509060018203906000526020600020016000909192909190916101000a81548173ffffffffffffffffffffffffffffffffffffffff021916908373ffffffffffffffffffffffffffffffffffffffff16021790555050836040518082805190602001908083835b6020831015156104985780518252602082019150602081019050602083039250610473565b6001836020036101000a03801982511681845116808217855250505050505090500191505060405180910390203373ffffffffffffffffffffffffffffffffffffffff167fbbb3f91ceb40eb1b54de4ac1b7f6240d34b7c6a3e92c03c285cdf7d7ace1501d85856040518080602001838152602001828103825284818151815260200191508051906020019080838360005b8381101561054557808201518184015260208101905061052a565b50505050905090810190601f1680156105725780820380516001836020036101000a031916815260200191505b50935050505060405180910390a350505050565b6040516114f58061059783390190560060806040523480156200001157600080fd5b50604051620014f5380380620014f58339810180604052810190808051820192919060200180518201929190602001805190602001909291908051906020019092919050505083838383600160006002600060036000600460008891906101000a81548173ffffffffffffffffffffffffffffffffffffffff021916908373ffffffffffffffffffffffffffffffffffffffff1602179055508791905055869190509080519060200190620000c8929190620000f1565b50859190509080519060200190620000e2929190620000f1565b505050505050505050620001a0565b828054600181600116156101000203166002900490600052602060002090601f016020900481019282601f106200013457805160ff191683800117855562000165565b8280016001018555821562000165579182015b828111156200016457825182559160200191906001019062000147565b5b50905062000174919062000178565b5090565b6200019d91905b80821115620001995760008160009055506001016200017f565b5090565b90565b61134580620001b06000396000f3006080604052600436106100ba576000357c0100000000000000000000000000000000000000000000000000000000900463ffffffff168063031ce553146100bf57806306fdde03146100ec5780630a1443911461017c5780634051ddac146101d7578063481c6a75146103225780637284e4161461037957806381d12c581461040957806382fde093146104fb5780638a9cfd5514610526578063a7f33715146105b9578063d7bb99ba146105e4578063d7d1bbdb146105ee575b600080fd5b3480156100cb57600080fd5b506100ea6004803603810190808035906020019092919050505061061b565b005b3480156100f857600080fd5b50610101610766565b6040518080602001828103825283818151815260200191508051906020019080838360005b83811015610141578082015181840152602081019050610126565b50505050905090810190601f16801561016e5780820380516001836020036101000a031916815260200191505b509250505060405180910390f35b34801561018857600080fd5b506101bd600480360381019080803573ffffffffffffffffffffffffffffffffffffffff169060200190929190505050610804565b604051808215151515815260200191505060405180910390f35b3480156101e357600080fd5b506101ec610824565b6040518080602001806020018881526020018781526020018681526020018581526020018473ffffffffffffffffffffffffffffffffffffffff1673ffffffffffffffffffffffffffffffffffffffff16815260200183810383528a818151815260200191508051906020019080838360005b8381101561027a57808201518184015260208101905061025f565b50505050905090810190601f1680156102a75780820380516001836020036101000a031916815260200191505b50838103825289818151815260200191508051906020019080838360005b838110156102e05780820151818401526020810190506102c5565b50505050905090810190601f16801561030d5780820380516001836020036101000a031916815260200191505b50995050505050505050505060405180910390f35b34801561032e57600080fd5b506103376109c9565b604051808273ffffffffffffffffffffffffffffffffffffffff1673ffffffffffffffffffffffffffffffffffffffff16815260200191505060405180910390f35b34801561038557600080fd5b5061038e6109ef565b6040518080602001828103825283818151815260200191508051906020019080838360005b838110156103ce5780820151818401526020810190506103b3565b50505050905090810190601f1680156103fb5780820380516001836020036101000a031916815260200191505b509250505060405180910390f35b34801561041557600080fd5b5061043460048036038101908080359060200190929190505050610a8d565b60405180806020018681526020018573ffffffffffffffffffffffffffffffffffffffff1673ffffffffffffffffffffffffffffffffffffffff16815260200184151515158152602001838152602001828103825287818151815260200191508051906020019080838360005b838110156104bc5780820151818401526020810190506104a1565b50505050905090810190601f1680156104e95780820380516001836020036101000a031916815260200191505b50965050505050505060405180910390f35b34801561050757600080fd5b50610510610b97565b6040518082815260200191505060405180910390f35b34801561053257600080fd5b506105b7600480360381019080803590602001908201803590602001908080601f016020809104026020016040519081016040528093929190818152602001838380828437820191505050505050919291929080359060200190929190803573ffffffffffffffffffffffffffffffffffffffff169060200190929190505050610b9d565b005b3480156105c557600080fd5b506105ce610ddc565b6040518082815260200191505060405180910390f35b6105ec610de2565b005b3480156105fa57600080fd5b5061061960048036038101908080359060200190929190505050610f7c565b005b6000600460009054906101000a900473ffffffffffffffffffffffffffffffffffffffff1673ffffffffffffffffffffffffffffffffffffffff163373ffffffffffffffffffffffffffffffffffffffff1614151561067957600080fd5b60008281548110151561068857fe5b906000526020600020906005020190508060020160149054906101000a900460ff161515156106b657600080fd5b60026006548115156106c457fe5b0481600301541115156106d657600080fd5b60018160020160146101000a81548160ff0219169083151502179055508060020160009054906101000a900473ffffffffffffffffffffffffffffffffffffffff1673ffffffffffffffffffffffffffffffffffffffff166108fc82600101549081150290604051600060405180830381858888f19350505050158015610761573d6000803e3d6000fd5b505050565b60018054600181600116156101000203166002900480601f0160208091040260200160405190810160405280929190818152602001828054600181600116156101000203166002900480156107fc5780601f106107d1576101008083540402835291602001916107fc565b820191906000526020600020905b8154815290600101906020018083116107df57829003601f168201915b505050505081565b60056020528060005260406000206000915054906101000a900460ff1681565b6060806000806000806000600160026003543073ffffffffffffffffffffffffffffffffffffffff1631600080549050600654600460009054906101000a900473ffffffffffffffffffffffffffffffffffffffff16868054600181600116156101000203166002900480601f01602080910402602001604051908101604052809291908181526020018280546001816001161561010002031660029004801561090f5780601f106108e45761010080835404028352916020019161090f565b820191906000526020600020905b8154815290600101906020018083116108f257829003601f168201915b50505050509650858054600181600116156101000203166002900480601f0160208091040260200160405190810160405280929190818152602001828054600181600116156101000203166002900480156109ab5780601f10610980576101008083540402835291602001916109ab565b820191906000526020600020905b81548152906001019060200180831161098e57829003601f168201915b50505050509550965096509650965096509650965090919293949596565b600460009054906101000a900473ffffffffffffffffffffffffffffffffffffffff1681565b60028054600181600116156101000203166002900480601f016020809104026020016040519081016040528092919081815260200182805460018160011615610100020316600290048015610a855780601f10610a5a57610100808354040283529160200191610a85565b820191906000526020600020905b815481529060010190602001808311610a6857829003601f168201915b505050505081565b600081815481101515610a9c57fe5b9060005260206000209060050201600091509050806000018054600181600116156101000203166002900480601f016020809104026020016040519081016040528092919081815260200182805460018160011615610100020316600290048015610b485780601f10610b1d57610100808354040283529160200191610b48565b820191906000526020600020905b815481529060010190602001808311610b2b57829003601f168201915b5050505050908060010154908060020160009054906101000a900473ffffffffffffffffffffffffffffffffffffffff16908060020160149054906101000a900460ff16908060030154905085565b60065481565b610ba561122c565b600460009054906101000a900473ffffffffffffffffffffffffffffffffffffffff1673ffffffffffffffffffffffffffffffffffffffff163373ffffffffffffffffffffffffffffffffffffffff16141515610c0157600080fd5b60a0604051908101604052808581526020018481526020018373ffffffffffffffffffffffffffffffffffffffff16815260200160001515815260200160008152509050600081908060018154018082558091505090600182039060005260206000209060050201600090919290919091506000820151816000019080519060200190610c8f929190611274565b506020820151816001015560408201518160020160006101000a81548173ffffffffffffffffffffffffffffffffffffffff021916908373ffffffffffffffffffffffffffffffffffffffff16021790555060608201518160020160146101000a81548160ff021916908315150217905550608082015181600301555050508173ffffffffffffffffffffffffffffffffffffffff16846040518082805190602001908083835b602083101515610d5b5780518252602082019150602081019050602083039250610d36565b6001836020036101000a03801982511681845116808217855250505050505090500191505060405180910390203373ffffffffffffffffffffffffffffffffffffffff167f3ca802192981408a37e499c3b4328e4c2e3984429e9597ee6c441803322e916c866040518082815260200191505060405180910390a450505050565b60035481565b610e226040805190810160405280600381526020017f6d7367000000000000000000000000000000000000000000000000000000000081525033346110c8565b6003543410151515610ec2576040517f08c379a00000000000000000000000000000000000000000000000000000000081526004018080602001828103825260248152602001807f76616c75652073686f756c64206265206d696e696d756e20636f6e747269627581526020017f74696f6e0000000000000000000000000000000000000000000000000000000081525060400191505060405180910390fd5b6001600560003373ffffffffffffffffffffffffffffffffffffffff1673ffffffffffffffffffffffffffffffffffffffff16815260200190815260200160002060006101000a81548160ff0219169083151502179055506006600081548092919060010191905055503373ffffffffffffffffffffffffffffffffffffffff167fbdaa686eb6f59012d211a74523da260341c516896e9e5be954163d6ecf26ffa2346040518082815260200191505060405180910390a2565b6000600560003373ffffffffffffffffffffffffffffffffffffffff1673ffffffffffffffffffffffffffffffffffffffff16815260200190815260200160002060009054906101000a900460ff161515610fd657600080fd5b600082815481101515610fe557fe5b90600052602060002090600502019050600015158160040160003373ffffffffffffffffffffffffffffffffffffffff1673ffffffffffffffffffffffffffffffffffffffff16815260200190815260200160002060009054906101000a900460ff16151514151561105657600080fd5b60018160040160003373ffffffffffffffffffffffffffffffffffffffff1673ffffffffffffffffffffffffffffffffffffffff16815260200190815260200160002060006101000a81548160ff02191690831515021790555080600301600081548092919060010191905055505050565b6111ff83838360405160240180806020018473ffffffffffffffffffffffffffffffffffffffff1673ffffffffffffffffffffffffffffffffffffffff168152602001838152602001828103825285818151815260200191508051906020019080838360005b8381101561114957808201518184015260208101905061112e565b50505050905090810190601f1680156111765780820380516001836020036101000a031916815260200191505b509450505050506040516020818303038152906040527f07c81217000000000000000000000000000000000000000000000000000000007bffffffffffffffffffffffffffffffffffffffffffffffffffffffff19166020820180517bffffffffffffffffffffffffffffffffffffffffffffffffffffffff8381831617835250505050611204565b505050565b600080825191506a636f6e736f6c652e6c6f679050602083016000808483855afa5050505050565b60a0604051908101604052806060815260200160008152602001600073ffffffffffffffffffffffffffffffffffffffff168152602001600015158152602001600081525090565b828054600181600116156101000203166002900490600052602060002090601f016020900481019282601f106112b557805160ff19168380011785556112e3565b828001600101855582156112e3579182015b828111156112e25782518255916020019190600101906112c7565b5b5090506112f091906112f4565b5090565b61131691905b808211156113125760008160009055506001016112fa565b5090565b905600a165627a7a72305820ff5570023354f2973955351b1006c58cbcd71aff5c7d4fd4a0bcefde10bd52260029a165627a7a7230582054454c731b4b66fb88ef708f117c56e42c45b9d3ce26f4bdff11662a0ef02f600029",
  "linkReferences": {},
  "deployedLinkReferences": {}
}